:020000041000EA
:1000000000B5324B212058609868022188439860DF
:10001000D860186158612E4B002199600221596106
:100020000121F02299502B49196001219960352056
:1000300000F044F80222904214D00621196600F024
:1000400034F8196E01211966002018661A6600F04E
:100050002CF8196E196E196E052000F02FF8012189
:100060000842F9D1002199601B49196000215960AB
:100070001A491B48016001219960EB211966A021F2
:10008000196600F012F800219960164914480160C1
:100090000121996001BC002800D000471248134993
:1000A000086003C880F30888084703B5996A0420EC
:1000B0000142FBD001200142F8D103BD02B5186610
:1000C0001866FFF7F2FF186E186E02BD00000240BE
:1000D000000000180000070000035F00212200005C
:1000E000F4000018222000A00001001008ED00E03C
:1000F00000000000000000000000000074B24E7A12
:1001000000200420F7010010C3010010C5010010F9
:10011000C1010010C1010010C1010010C101001097
:10012000C1010010C1010010C1010010C701001081
:10013000C1010010C1010010C9010010CB01001065
:10014000CD010010CD010010CD010010CD01001037
:10015000CD010010CD010010CD010010CD01001027
:10016000CD010010CD010010CD010010CD01001017
:10017000CD010010CD010010CD010010CD01001007
:10018000CD010010CD010010CD010010CD010010F7
:10019000CD010010CD010010CD010010CD010010E7
:1001A000CD010010CD010010CD010010CD010010D7
:1001B000CD010010CD010010CD010010CD010010C7
:1001C00000BE00BE00BE00BE00BE00BEEFF3058054
:1001D000103800BEF2EB8871D4C60010F8C60010CB
:1001E0003402001090A31AE700201F49086006C8D7
:1001F00081F3088810471D48006800282FD10DA4FE
:100200000ECC002902D000F012F8F9E71849194A7B
:10021000002000E001C19142FCD1174988471749ED
:1002200088471749884700BEFDE701C901C29A42C5
:10023000FBD37047F8C60010C0000020B80C0020A7
:10024000F0D200100000042000000420F0D20010C2
:10025000001004200010042000000000704709482E
:1002600004F07EF90047000008ED00E0000000D037
:10027000B80C002034110020453200100903001092
:10028000013200105756000006005250ABB36053C5
:1002900030C0001006005250861C030240C00010FF
:1002A000060052505422A29D50C00010050052502A
:1002B000DE65F468F0D20010F8B5C046064807497C
:1002C000091A8B10C90FC91810B5491003D0044B77
:1002D000002B00D0984710BDB80C0020B80C0020AF
:1002E00000000000054B10B5002B03D00449054861
:1002F00000E000BFFFF7E2FF10BDC04600000000B5
:100300008C0E002098AB001000B58BB004F070FF8D
:1003100000F000FB0990142105A800F029F809213C
:1003200003A800F0E4F9082101A800F0E0F900F0CA
:1003300057F900F069F900F017FA13E009AA05A9C6
:1003400003A800F03BFB09A800F088FB09AA05A957
:1003500003A800F0CBFB05A909A800F0E9FB2020C9
:1003600000F012FE09AB5B78072BE7D0EBE700004B
:10037000F0B5DE4657464E464546E0B587B0040028
:100380000E006B460022914600925A609A6010322D
:100390005A602D4A9A6003AA904623CB23C2FA23BF
:1003A000DB0042465360294B93601022002120005D
:1003B00004F034FD2660730807221A40626093003F
:1003C0009D18AD0022498C466544296801200140F2
:1003D00080277F012F43BB4639609918890060460A
:1003E0004F460F50AF60EF6040468068286140463E
:1003F00040686860039988469918890060464746B6
:100400000F5001203040A0600B00124A9446634414
:10041000002817D010491A68114080225201134356
:1004200019600421300000F077FE2A68012393430D
:100430005A461360200007B0F0BCBB46B246A9463E
:10044000A046F0BD0049E6E7FFFF0000E70300001B
:10045000000005400C0005400000FFFF10B5818141
:1004600044688268A3001B199B000B4884466344C0
:10047000002A0CD010208140002A0AD0074A1868B0
:1004800041401140802252011343196010BD1000F9
:10049000F1E7034AF3E7C0460C0005400000FFFF08
:1004A000FFFF000010B58389002B18D13222828112
:1004B00044688168A3001B199B000C488446634470
:1004C00000290ED01020824000290CD0084918685D
:1004D00042401140802252011343196010BD002296
:1004E000E5E70800EFE70349F1E7C0460C000540E7
:1004F0000000FFFFFFFF000070B506004D00002464
:1005000006E03000FFF7CEFFC82001F0DDFF013428
:10051000AC42F6DB70BD000070B50C0002F086F84E
:1005200002000B000E490868496815001E002D1ACC
:100530008E41002E03D109D10A498D4206D90849BE
:100540000A604B60042C02D0082C04D070BD064B0E
:1005500001221A70FAE7054B01221A70F6E7C0462D
:10056000B80D0020881300002E1100202F1100204C
:1005700010B5021E09D001280BD0084B1B68D868A3
:10058000074905F06BF9002002E0064B1878C0B26D
:1005900010BD054B1878C0B2FAE7C046F002002043
:1005A00098AB00102E1100202F11002010B5021E54
:1005B00008D0012809D0064B1B68D868054905F00A
:1005C0004DF901E0044B197010BD044B1970FBE7A5
:1005D000F002002098AB00102E1100202F110020F7
:1005E00010B51C2000F080FE002201211C2000F02C
:1005F000ABFD10BD10B50200024B0C211C2000F019
:1006000017FE10BD1905001070B500240BE0074B54
:10061000E200D558280000F067FE0123AB40D0224D
:10062000120653620134032CF1DD70BDACAB001037
:1006300070B582B000280AD01A4A137801335BB231
:100640001370072B0ADD130000221A7006E0154A0A
:100650001378013B5BB21370002B06DB114B1B7848
:100660005BB2114AD45C002107E0130007221A7024
:10067000F4E7D022120693610131032910DC6A46A7
:100680000A4BC8001B18100060CB60C0009812799C
:10069000012383401442ECD0D02212065361EBE7D1
:1006A00002B070BD31110020CCAB0010ACAB00101B
:1006B00070B50500C643F60F002804DB0024002DAA
:1006C0000BDA002509E00400F9E73000FFF7B0FF7E
:1006D0000348002101F0CCFE0134AC42F5D170BDDD
:1006E0005203000010B54002FFF7E2FF10BD70B5E5
:1006F00005000C000160002303710B00093BDA17B1
:100700009B18534043710521200000F005FD012393
:10071000A340D0221206936200220121200000F0A3
:1007200013FD280070BD0268D0231B065B68D34010
:10073000DB0706D40379002B03D101330371007961
:100740007047D0231B065B68D340DB07F7D50379DE
:10075000002BF4D000230371F1E70000014B0122CC
:100760001A7070473011002010B51B2000F0BCFD3E
:10077000D0231B06802212059A62002201211B2031
:1007800000F0E2FC10BD000010B50200024B042195
:100790001B2000F04DFD10BD5D070010F8B501F005
:1007A00045FF0600094B1B78DFB2002B0BD101F08F
:1007B0003DFF34000025001BA941002903D1F1D1E0
:1007C000034B9842EED93800F8BDC04630110020E6
:1007D000084C0100014B18707047C04630110020D2
:1007E00070B5060001F022FF05000C00114A00233D
:1007F00003F048FF73233370002C03D110D10E4B4C
:100800009D420DD9002C03D10BD10C4B9D4208D930
:10081000682333700A4A00232800210003F032FFC6
:1008200070BD084A00232800210003F02BFF6D2330
:100830003370F5E7A08601009F0D95039F2A95D69A
:10084000002A7515808D5B000CB4F0B5C64600B566
:10085000A6B004000D0057276F443800FFF7C0FF13
:1008600080460E003B7804930A22002303F00AFF1F
:10087000029203930A2200234046310003F002FF54
:10088000009001911F4A092116A803F02FFE2DABFD
:1008900007931D4AA1008A58342108A803F03AFEA4
:1008A000342208A916A805F0EDFC16A804F064FC93
:1008B000290016A800F0D4FB072C07D90C2C07D16F
:1008C000A91C0122114800F0EBFA01E0062C0DD220
:1008D000002C04D0022C02D0EB78002B0CD126B0D7
:1008E00080BCB846F0BC08BC02B01847691C0122A5
:1008F000074800F0D5FAEBE7002116A800F098FAB7
:10090000EDE7C046D4AB0010C8AD0010FD7F00007D
:10091000FE7F000000B583B000F0B0FA234800F07D
:1009200011FB6B461870002269460020FFF78CFF10
:100930001F4800F007FB6B4658701E4800F002FB92
:1009400003006A4690705278072A02D90722694646
:100950004A70072B02D900236A46937000F06AF9A7
:1009600000F0B4F900F038FA6B46D870002817D0C0
:10097000002269460120FFF767FF01AB009A019250
:100980005A781202187810439A7812040A490840DB
:100990001043DB781B060002000A184303B000BDB9
:1009A000002269460220FFF74FFFE6E7FF7F0000C5
:1009B000FE7F0000FD7F0000FFFF00FFF0B5C64690
:1009C00000B506000F009046002241460320FFF7C5
:1009D0003BFF002407E00A21280003F015FECCB2FB
:1009E000322001F071FD3000FFF79DFE002807D195
:1009F000651CEDB2002CEED13800FFF753FDEAE79D
:100A00007379012241460420FFF71EFF00213800C0
:100A1000FFF724FD80BCB846F0BD000070B50500AE
:100A20000E000021FFF7C2FD0120FFF7E3FD0024C7
:100A300007E03000FFF7FCFD01340748002101F01A
:100A400017FD2800FFF794FD0028F2D00020FFF7E3
:100A5000D1FD200070BDC0465203000070B50400F7
:100A6000002201000520FFF7EFFE6378062B1DD959
:100A700001210020FFF7D2FF01210120FFF7CEFF67
:100A8000050001210020FFF7C9FF2E18E80F4019CB
:100A900040100A38FFF70CFE00236370A370330088
:100AA000012221000620FFF7CFFE70BD00210120AA
:100AB000FFF7B4FF322001F007FD01210120FFF70D
:100AC000ADFF0500322001F0FFFCE80F4019401097
:100AD00040420A30FFF7ECFD6078FFF703FE6378D1
:100AE000012221000720FFF7AFFEDEE770B504000A
:100AF0000D00160032212800FFF7B0FC0022310063
:100B00000320FFF7A1FE02E0322001F0DDFC20000F
:100B1000FFF709FE0028F7D0637901223100042095
:100B2000FFF792FE00212800FFF798FC70BD00003F
:100B3000F0B5DE4657464E46C0B584B006008B463B
:100B40004378012201000820FFF77EFE0120FFF715
:100B50001BFE01F06BFD364A002303F093FD02906B
:100B60000391727807239B1ADBB29A460027B94695
:100B70005F4634E0052001F0A7FC01F057FD2C4A48
:100B8000002303F07FFD8D42F4D801D18442F1D8D7
:100B900073780133012231000A20FFF755FE00204F
:100BA000FFF718FE0120FFF79DFD73780133737086
:100BB000002231000B20FFF747FEFFF7EFFD002872
:100BC0001DD17378012231000D30FFF73DFE052164
:100BD0003800FFF791FC4B460133DBB29946D14513
:100BE00017D24B469B004B445B000093DB170193ED
:100BF000009C019D029A039BA4185D41BDE7B37858
:100C00000133B3707378012231000C20FFF71CFE12
:100C1000E1E70020FFF7B8FDB37801223100092099
:100C2000FFF712FE04B0E0BCBB46B246A946F0BDD9
:100C300040420F0010B59621094C8901200002F0B6
:100C4000BBF80221042000F067FA0221052000F021
:100C500063FA002301220821200002F083F810BD6E
:100C60000080034010B582B0002409E06B460733D2
:100C70001B780A2B19D04E2C02DC114A1355013473
:100C80001049114802F0D8F8002817D000226B460E
:100C9000D91D002AEAD10C4B9B69DB06FBD40A4B19
:100CA0001B680B7001320131F3E7054B00221A5526
:100CB0001B78002B01D10024E2E7014802B010BDEF
:100CC000C410002020A107000080034010B582B0AE
:100CD000134B1A6800921B796A461371002412E0C4
:100CE000104B9B699B06FBD408780E4B18600132B1
:100CF0000131032AF4D9FFF7B5FF002808D10A48CB
:100D000004F03AFA0134042C07D800226946F0E7CF
:100D1000064B0100180004F05FFA02B010BDC04697
:100D2000D0AE001000800340B8AE001098AE0010A6
:100D300010B50A4B8000C458200005F075FA002257
:100D400008E0074B9B699B06FBD42178044B196094
:100D5000013201349042F4D810BDC04684B0001076
:100D60000080034070B594B005000E0015E0FFF759
:100D700079FF0100684605F04FFA124BAA00D158DE
:100D8000684605F005FA002813D00F4BAA00D15889
:100D9000684605F0FDF9002810D00C490C4802F017
:100DA0004BF8041E0AD0002EE1D0232004F07EF977
:100DB000DDE70848694604F00FFA0024200014B06B
:100DC00070BDC046A0B00010BCB000108096980066
:100DD00000800340D8AE001070B5114804F0CCF983
:100DE0000124052C15D82000FFF7A2FF01212000C7
:100DF000FFF7B8FF051E02D00134E4B2F1E7094B5A
:100E00001B68D868084BA400E258084904F026FD86
:100E100003E00A2004F04AF90125280070BDC0460D
:100E2000E8AE0010F002002084B0001010AF0010F7
:100E300030B595B002000D000E49684603F040FB46
:100E4000684605F0F1F900216A4608E00A4B9B6903
:100E50009B06FBD41478084B1C6001310132884298
:100E6000F4D8002D01D115B030BD00210620FFF7C8
:100E700079FFF8E740AF00100080034010B5064846
:100E8000064904F053FC0321102000F045F903212A
:100E9000112000F041F910BDE8020020A0860100F9
:100EA000F0B5C64600B582B002AF904613000233DB
:100EB0000932D208D2006C46A21A954602AA040A48
:100EC00014705070002403E0A51C0E5D56550134CB
:100ED0004445F9D3074800210091503104F052FCF9
:100EE0004346980040440A3001F0EEFABD4680BC0B
:100EF000B846F0BDE8020020F0B583B002AF0E00A6
:100F0000150014000934E408E4006B461B1B9D46E1
:100F100002AA030A13705070094C01230093013395
:100F20005021200004F02EFC002300932B003200FF
:100F30005021200004F032FCBD4601B0F0BDC04697
:100F4000E802002010B582B06B46DC1D01222100B2
:100F5000FFF7D2FF207802B010BD000030B50400CA
:100F600008480BE0020A23785A4013090002534054
:100F70005A015340584080B2290001344D1E0029C7
:100F8000F0D130BDFFFF000070B590B006001D48E5
:100F900004F0F2F8002521E001346B461B5D002BC4
:100FA000FAD16B461B78002B22D0E11C6846FFF774
:100FB000D5FF00281CD13D2C1ADC1348290004F071
:100FC0000BF9002402E0013404F070F86B46185D60
:100FD0000028F8D10A3004F069F80135AE420BDD83
:100FE000A80180B240226946FFF786FF0024D4E7BB
:100FF0000648290004F0F0F8054804F0BDF810B0E8
:1010000070BDC046D8B00010ECB0001004B10010A4
:101010002CB1001070B582B006000E4804F0ACF898
:1010200000250EE0AC01A4B20B48210004F0D4F876
:1010300001A90A4B1B780B7001222000FFF730FF3B
:1010400001351F2DEEDD002333700A2004F02EF849
:1010500002B070BD34B1001064B100103CAF00109C
:10106000F0B5D6464F464646C0B500AF05008946A6
:101070000B781F2B14D8280005F0D6F880463D28A1
:1010800001D93D239846022343449A4643460A33F6
:10109000DB08DB006A46D31A9D466E46002409E051
:1010A0001B4804F069F84846FFF7B4FFE3E72B5DFF
:1010B00033550134280005F0B7F8A042F7D80023D3
:1010C00033544446013421003000FFF747FF030A40
:1010D00033555346F0544B461878800180231B014A
:1010E000984205D3BD46E0BCBA46B146A846F0BD1D
:1010F00040223100FFF7D4FE4B461B7801334A46AD
:101100001370012249460348FFF7CAFEEAE7C046CA
:101110006CB10010FF7F000010B58300084A9446B0
:1011200063441A6840246240803414408022520193
:1011300013431C60C000034B9C466044416010BDDB
:1011400004C001400040014080000B4B9C466044BD
:1011500000290DD00823002A0CD004221343026872
:1011600053400C221A4080235B0103431A607047EE
:101170000023F0E70022F1E704C0014070B504004D
:10118000D0231B061D680D4BAA00D358002B0AD094
:10119000002803D0094BAD00EC5070BD08490D206C
:1011A00000F0CCFAF6E70028F7D0044BAD00E85089
:1011B000034900220D2000F0A9F9EEE7040E0020FB
:1011C00051120010072303409B00C00899403C3097
:1011D0008000014BC150704700400140F8B5070046
:1011E0000C0016001D00FFF7EDFFFB089B00ED183B
:1011F0000720384080008440002E04D080239B01CB
:101200002B431C60F8BDC0239B012B431C60F9E7F6
:1012100010B5D0231B061B68002B03D0024BFFF731
:10122000DDFF10BD014BFAE73041014000410140B4
:1012300070B514001D00FFF7EBFF2800FFF79EFFBD
:10124000002C00D170BD01210D2000F025F9F9E737
:10125000F0B5D6464F464646C0B5D0231B061F689C
:101260001D4BBA00D3589846002F03D01B4B99460C
:10127000002623E01A4B9946FAE724090135002C91
:101280001BD033000833AB4217D90F231A0022407A
:1012900092462342F1D0134BBA00D2580123AB40FF
:1012A0001342EAD151462800FFF78CFF4346002B3A
:1012B000E3D051462800C047DFE708361D2E06D888
:1012C000F30808339B004A469C583500D7E7E0BC3A
:1012D000BA46B146A846F0BD040E00203041014098
:1012E00000410140B40E002010B501238340D022FC
:1012F0001206936293610521FFF70EFF10BD0000F7
:10130000034B1B6802201840431E9841C0B270472F
:1013100000C00640EFF3108072B6034B1B68002B31
:10132000FBD0BFF35F8F70472C0100D0BFF35F8FFE
:10133000024B00221A6080F3108870472C0100D005
:10134000F8B506000C001500FFF7E4FFE308F718F6
:10135000F15C07222240012393400B4205D1DBB20E
:101360000B433B70FFF7E2FFF8BD2100280001F0BE
:10137000E5FF0000002307E0054A9A189200BFF33A
:101380005F8F0021116001331F2BF5D97047C046D4
:1013900040000034054A1078431CDBB21370172B51
:1013A00002D9130010221A707047C046380200207C
:1013B000074B9B68103080001950BFF35F8FBFF35D
:1013C0005F8F044B0021196082F310887047C0467C
:1013D00000ED00E0240100D010B5091A0B1F0A4AE5
:1013E00094466144094A914208D8DA0706D45B1052
:1013F0005B055B0D0648184380B210BD054B064ADD
:101400000648A32101F000FFFC070000FE0F0000CA
:1014100000E0FFFFA8B10010FCB30010D8B100102D
:1014200010B5091A04394A08090B08D14905490DB4
:10143000064B0B430380064B1343438010BD054B03
:10144000054A0648AB2101F0DFFEC04600F0FFFF71
:1014500000F8FFFF18B20010D0B30010D8B1001090
:1014600001238340034A10681840431E9841C0B2CC
:101470007047C04600E100E0002904D0034B18602B
:10148000034B18607047034B1860FBE780E200E0F5
:1014900000E100E080E100E010B501238340180086
:1014A000FFF7EAFF10BD0000024B9B681030800080
:1014B000C058704700ED00E070B504000D00EFF378
:1014C000108672B60C4B1B68002BFBD0BFF35F8FEE
:1014D0002000FFF7E9FF094B984201D0A84205D14F
:1014E000320029002000FFF763FF70BD044B054A5E
:1014F0000548862101F088FE240100D0CD010010AE
:1015000028B2001030B40010D8B10010F0B5DE469B
:1015100057464E464546E0B589B0814601911500D3
:10152000EFF3108A72B6734B1B68002BFBD0BFF32E
:101530005F8F714B0027DF57002F40DB7C00E419E1
:10154000A4006E4824180622A2566B4B1A706C4BEE
:101550009A684B4610339B00D35898461E00181AC1
:101560002F2838D9674B98452FD105AE664B33806D
:1015700066497B009B46D8198000604B98464044E2
:101580000230FFF729FF7080614BB380FF23B371F6
:10159000F571019B07935F44BB00434407CE07C32B
:1015A00001231C43A046524641464846FFF700FF30
:1015B00009B0F0BCBB46B246A946A046F0BD554BAB
:1015C000554A5648D72101F01FFE554B524A534801
:1015D000DE2101F019FE01380C2103F015F8002975
:1015E00012D101239E43B34633000026DA79AA4282
:1015F00011D90621595600290CDB4A0052189200D5
:101600003E491E008B18F1E7464B434A4348EA2106
:1016100001F0FAFD1E00002E3AD005AB424A1A80B6
:10162000813A5A800623F3560293002B17DA3F487B
:1016300005AB9B469880029A9A71DD71019A0792D8
:10164000301D2100FFF7C8FEB080B7712B4B7A0028
:10165000D21992009B185A4613CA13C3A3E7780005
:10166000C0198000254BC0180430311DB388DA0A38
:101670001C2A07D15B055B1502335B00C918FFF715
:10168000ABFED5E72A4B2B4A2448B12101F0BCFD23
:1016900005AE1D4B33801D497B000293DB199B0077
:1016A000164A90461A0042440392901CFFF794FE9B
:1016B0007080039A101D5946FFF78EFEB0801E4BB6
:1016C0005A464146521A524153431B0DB371F571AC
:1016D000019A0792029B9C466744BB00434407CE95
:1016E00007C3114B5A461380813B538001231C438F
:1016F000A04658E7240100D02D1100203C02002014
:1017000000ED00E0CD01001000A1FFFF6C02002001
:1017100001BDFFFF60B2001018B40010D8B1001076
:1017200088B20010B0B200100148000001BD0000F6
:1017300024B3001008B40010AAAA0000F0B5CE46E9
:10174000474680B583B006000D00EFF3108872B6EF
:10175000554B1B68002BFBD0BFF35F8F534B9A6830
:1017600034001034A300D758514B9F4207D0AF42EA
:1017700000D196E001974F4BFB1A2F2B09D9424617
:1017800039003000FFF714FE03B0C0BCB946B046C4
:10179000F0BD3000FFF764FE814600213000FFF706
:1017A0007BFEBFF35F8FEFF30581002901D08C42F0
:1017B00011D10123019C9C430020A368AB4212D0AD
:1017C0000622A256002A0DDB53009B189B00394AC3
:1017D0002000D418F1E7384B384A36213848FF3119
:1017E00001F012FD2000AB4254D106256557002DB3
:1017F00036DB304B6A00521992009B189A68A2603F
:10180000DA79E2719B795BB2A371002B0FDA2D4874
:10181000A080284B6A00521992009B182A4A11781E
:101820009971157049463000FFF736FEA7E7201D75
:101830006B005B199B001F4A9B18191D9B88DA0AD5
:101840001C2A07D15B055B1502335B00C918FFF743
:10185000C3FDDDE71D4B1E4A1948B12101F0D4FC40
:10186000002912D100280ED0FF238371194B8380E9
:1018700015490B78A3710F4A174BA41A64416343AF
:101880001B0D0B70CEE70A4FF2E71449201DFFF73E
:10189000C7FDC7E7124B094A6A210948FF3101F029
:1018A000B3FC034F6BE7C046240100D000ED00E01D
:1018B000CD0100103C0200203CB30010E8B3001042
:1018C000D8B1001001BD00002D11002024B300107C
:1018D00008B4001001BDFFFFAAAA00007602002094
:1018E00070B3001070B5012202432E4BD31A2F2B78
:1018F00028D8EFF30583002B2BD0EFF3108C72B6B2
:10190000294909680029FBD0BFF35F8F254C27497F
:1019100005002D1B6D416943090D4CB224498968AE
:101920009B00C95891421BD00021032932D81D4B7E
:101930004A00521892009B189B795BB2A3421FD0B9
:101940000131F2E71B4B1C4AC7211C48490001F03A
:101950005BFC1B4B184A92211848FF3101F054FCE4
:10196000134A92681749D150174B1A7882711C702C
:10197000BFF35F8F0C4B00221A608CF3108870BD90
:10198000084B4A005518AD005D19FF26AE710F4A8D
:10199000AA80E9E70E4B084AD1210848490001F026
:1019A00033FCC0463C020020240100D0AAAA00005B
:1019B00000ED00E078B30010B4B30010D8B100100F
:1019C000A0B30010CD0100102D11002001BDFFFFBC
:1019D000ACB300100022044B02E0044902C3013200
:1019E000072AFAD97047C04600E400E08080808072
:1019F000024B9C46614489000160704740000034FE
:101A000010B50400FFF7C6FC01002000FFF7F0FF4F
:101A1000FF232371BFF35F8F10BD10B50400FFF7E4
:101A2000B9FC01002000FFF7E3FFFF23237100232F
:101A30006371BFF35F8F10BD70B505000C00080027
:101A400000F0F4FE0949200000F034FEFFF7A2FC8C
:101A5000074B9C466044800068602C75D0231B06B1
:101A60001B786B75034BA400E55070BD6D1D001015
:101A700040000034A40E00200A4B1A68EFF31081D6
:101A800072B61368002BFCD0BFF35F8F054B1B6849
:101A9000BFF35F8F00221A6081F3108840BF0020DF
:101AA00000217047C010002010B5002920D0036825
:101AB0001B7B99421CD88368154CA44661440901DC
:101AC0005B181C685968002A18D003681B7B9A426F
:101AD00014D883680E488446624412019B181A6821
:101AE0005B6801208B4201D80ED00020C0B210BD2F
:101AF000084B094A09483C2101F086FB054B064A80
:101B000006483C2101F080FBA242EFD8EDE7C04639
:101B1000FFFFFF0FACB5001010B8001074B5001037
:101B200010B500291DD0037B99421AD804684B00D8
:101B30005B18033BE418002919D0002A1DD09142FC
:101B400021D0002A25D0037B9A4222D80068530076
:101B50009B18033BC3189970217800291FD122706C
:101B600010BD104B104A1148682101F04DFB104B7D
:101B7000104A0E486F3101F047FB0F4B0D4A0B48DE
:101B8000702101F041FB0D4B0A4A0848712101F018
:101B90003BFB044B044A0548682101F035FB5970B2
:101BA0002270DDE7D0B500107CB80010ECB5001055
:101BB00038B6001058B8001044B6001050B60010E7
:101BC00070B506000D001400002914D0002A14D0AE
:101BD000436880689847002806D02200290030001A
:101BE000FFF79EFF280007E02A0021003000FFF7E2
:101BF00097FF200000E0100070BD0800FCE7000027
:101C0000F0B583B00500009201930AAB1C780BABD2
:101C10001F78002C26D003685A7B944207D10123F9
:101C2000002B19D1002C3AD1200003B0F0BD002CBC
:101C30000CD01A7B944209D81A6863001B19033B25
:101C4000D3189B78002BEBD00123E9E73C4B3D4AAE
:101C50003D48682101F0D8FA3C4B3D4A3D48672198
:101C600001F0D2FA03689C7B002CDBD011D01A7BE8
:101C700094420ED81A686100091903395218517834
:101C80009973002900D1D973002393705370137096
:101C9000C8E72B4B2B4A2C48682101F0B5FA002CE1
:101CA00037D02B681B7B9C4233D8AB682A4AA218DA
:101CB00012019B18009A1A60019A5A60089A9A6059
:101CC000099ADA602E68002C29D02ED0337B9C42F2
:101CD0002BD8336862001219033A9B1800229A70BD
:101CE0005A701A70717B22003000FFF769FF707321
:101CF000844299D1287D009A019B00F023FD061EA5
:101D000001D0002F17D00C9B002B00D18CE71E7048
:101D10008AE7124B124A0F483C2101F075FA114B29
:101D2000114A0948A52101F06FFA054B054A0648FA
:101D3000682101F069FA2868210000F033FFE2E72A
:101D4000D0B500107CB80010ECB5001068B60010DB
:101D500088B8001074B50010FFFFFF0FACB500107D
:101D600010B8001070B500106CB80010F0B5DE4669
:101D700057464E464546E0B58BB009900023089380
:101D8000B54B8200D55854E0B44BB54AB5483F2115
:101D900001F03AFAB44BB54AB5483C2101F034FAA7
:101DA000002F01D1002E6BD1002100F0F1FEA042E6
:101DB0001CD143461A685B680692079343469B68AA
:101DC0009A464346DB689B465346002B14D0002CB2
:101DD00018D02B681B7B9C4214D8EA68631ED35C26
:101DE00008931B0218432861002015E0A14BA24A6A
:101DF0009F488E2101F008FAA04B9F4A9C489221EF
:101E000001F002FA984B9E4A9948412101F0FCF9F1
:101E100000239B469A4600206B68BFF35F8F002229
:101E20001A6089F310885346002B33D1002800D163
:101E30000BE100F0FBFB02000B1EA5DB00200021E4
:101E4000069007916868EFF3108972B6016800295F
:101E5000FCD0BFF35F8F2868447B002CD8D099D08A
:101E6000017B8C4296D8AE68864961180901B0465C
:101E7000884441460E684F68B61A9F41002F8FDD97
:101E800043461A685B68099800F05CFC00239B4697
:101E90009A46C1E7089B1B022343984659461800FF
:101EA000D04706000F006A68EFF3108972B6136816
:101EB00059424B41D9B2002BF9D1BFF35F8F002FAC
:101EC0001EDB002F46DD2B69002B47D043456DD12B
:101ED00000F0ACFB02000B1E6EDB92197B41002B65
:101EE00070DB002B72DB002104910131039102941D
:101EF00059460191514600912800FFF781FE4CE0C0
:101F00002B69002BDDD0434514D1069A079B921B09
:101F1000BB41002B14DB002B16DB002104910131A7
:101F20000391029459460191514600912800FFF710
:101F300067FE32E0544B504A4D48A12101F064F94C
:101F400001225242514BE6E7444B454A45483F2166
:101F500001F05AF9002F01D1002EB4D12B68002CCA
:101F60004FD05A7B944237D10121002949D1DA7BE5
:101F7000002A4CD19A7B002A03D1DA7B002A58D15F
:101F80009C73DC73002C5AD02B681B7B9C4256D868
:101F9000EA68013C135D0133135500232B616A6825
:101FA000BFF35F8F136089F3108842E7364B324AE4
:101FB0002F48A42101F028F9284B294A29483F211C
:101FC00001F022F901225242304B8AE7234B244A86
:101FD00024483F2101F018F9002C0CD01A7B9442C0
:101FE00009D8186862001219033A82189278002AF8
:101FF000BBD00121B9E7264B264A2748682101F0CA
:1020000003F9264B264A2448F62101F0FDF8002A60
:1020100009D0197B8A4206D8186851008A18033AF9
:1020200082185470A6E71A4B1A4A1B48682101F01F
:10203000EBF81C4B1A4A1848FB2101F0E5F80A4B53
:102040000F4A0B48412101F0DFF80BB0F0BCBB4652
:10205000B246A946A046F0BDA40E0020A0B40010D0
:10206000DCB70010BCB40010ACB5001010B8001004
:1020700074B5001090B60010F4B70010A8B60010A8
:1020800034B80010FFFFFF0FB4B60010FFFFFF7F52
:10209000D0B500107CB80010ECB50010F0B6001000
:1020A00048B8001014B7001010B50C4B5B68002B3B
:1020B00004D00B480A21FFF79BFC10BD074C094ACE
:1020C00020682300102100F079FC032000F0A2FA20
:1020D00003212000FFF7B0FCEBE7C046840200209C
:1020E000C0100020A91A001010B5064B5B68002B29
:1020F00001D0044810BD044B044A05485E2101F09C
:1021000083F8C0468402002028B700101CB80010D5
:1021100074B50010F0B5DE4657464E464546E0B56C
:102120008BB0804616001F00149B9A46159B99465B
:1021300016AB1B789B461F2302AA944663440022D9
:102140001A702DE0002809D042461268127B904296
:1021500004D84246D168421E8A5C43E0414B424A61
:102160004248412101F050F807984EE0361BAF413C
:10217000002F07DB002F13DA3D4B3E4A3E483F213C
:1021800001F042F8012676423C4FF3E7384B394ADA
:1021900039483F2101F038F8002D51DB26002F008F
:1021A00043465A68EFF3108472B6136859424B41A4
:1021B000D9B20791002BF8D1BFF35F8F1F3302AA6A
:1021C0009446634404930023039302934B46019384
:1021D0005346009332003B004046FFF711FD031EBB
:1021E000B0D1020041464968BFF35F8F00250D6002
:1021F00084F31088002B29D01F2302A98C46634446
:102200001B78002BB0D112021043002B20D05B466C
:10221000002B1DD04946D04704000D0003000B439E
:102220001DD00029A2DB00F001FA02000B1EADDB7D
:10223000A4185D41002DAFDA012464420F4DABE7D5
:102240000B4B0C4A0C483F2100F0DEFF01204042BE
:102250000BB0F0BCBB46B246A946A046F0BD0798FD
:10226000F6E7C046ACB5001034B8001074B50010E5
:10227000A0B40010DCB70010BCB40010FFFFFF7F5B
:10228000F8B50400002961D04268EFF3108572B6FA
:10229000136858424341D8B2002BF9D1BFF35F8F86
:1022A000CBB22268567BB3421BD10120002847D015
:1022B000206988422AD0090AC9B2002B2DD0206893
:1022C000007B834229D8E668581E305C88422AD0B9
:1022D00000206368BFF35F8F00221A6085F31088C7
:1022E000F8BD002B0CD0167BB34209D817685E00EE
:1022F000F618033EBE19B678002ED7D00120D5E7D8
:10230000134B144A1448682100F07EFF134B144A03
:102310002C211448FF3100F077FF134B134A11486A
:10232000412100F071FF1900100000F03BFC002873
:10233000CFD10F4B0A4A99210A48490000F064FFA7
:1023400023698B42C5D100232361C2E70020C7E780
:10235000D0B500107CB80010ECB500104CB70010E0
:10236000C4B7001074B50010ACB5001034B800103C
:1023700070B70010F0B587B006000F00EFF30583CB
:10238000002B1FD106246442E517A4197D418D421C
:1023900002D803D1844201D900240025002D14DB8A
:1023A0000494059500F042F902000B1E13DBA41AF9
:1023B0009D41002D17DC14D03000390000F042F9A7
:1023C00007B0F0BD234800F0B9FF234B234A24484F
:1023D0003F2100F019FF204B204A21483F2100F007
:1023E00013FF002CE8D0FFF77FFE00230293019338
:1023F0001C4B0093049A059BFFF78CFE002818DA0B
:10240000DAE7002300E00023002BD5D1164B1A6831
:10241000EFF3108172B61368002BFCD0BFF35F8F0F
:10242000114B1B68BFF35F8F00221A6081F3108885
:1024300020BF0499059A0D4B5B6A9A42E3D80B487A
:10244000806A884203D29A42DBD00123DCE7012371
:10245000DAE7C04674B70010A0B40010DCB7001073
:10246000BCB40010791A0010C010002000400540D4
:1024700070B504000D0000F0D9F802000B1E0ADB55
:10248000200029008018594100290ADB00290CDBB3
:10249000FFF770FF70BD084B084A09483F2100F064
:1024A000B3FE012040420749F0E7034B034A0448CA
:1024B0003F2100F0A9FEC046A0B40010DCB7001018
:1024C000BCB40010FFFFFF7F10B5FA22920000237A
:1024D000002102F037FCFFF7CBFF10BD70B584B0D0
:1024E00005000C00EFF30583002B1ED1FFF7FCFD68
:1024F000002302930193224B00932A002300FFF74D
:1025000009FE061E23DD20BFFFF7EEFD3100FFF7B9
:10251000B7FE1C4B5B6A9C422DD81A4A926AAA42AB
:102520002CD29C4225D0012026E0164B5B6A9942B2
:1025300009D8144A926A824207D2994201D00120F6
:102540001AE0002018E0002016E0012014E00D4BF6
:102550005B6A9C4209D80B4A926AAA4207D29C4203
:1025600001D0012008E0002006E0002004E0012066
:1025700002E0002000E0002004B070BD0120FBE775
:10258000791A00100040054070B5EFF3058010384F
:10259000EFF3108C72B6194B1B68002BFBD0BFF306
:1025A0005F8F01221300834015494B6315490B606F
:1025B000154909780C00C440224213D0104A546ACD
:1025C000124A8500AA58944205D3114AAA580E4CC3
:1025D0009943217007E00A4A031D9B0099589950BE
:1025E000002200E00022BFF35F8F044B002119603E
:1025F0008CF31088002A00D0904770BD280100D0CD
:10260000004005403C7005403211002014110020AC
:10261000F40D002010B50100024A034B1800FEF72C
:102620008FFE10BDA8B800102C110020044B5B6A6F
:10263000034A906A1900536A9942F9D17047C0461B
:1026400000400540084B5B6A01E0074B5B6A8B4228
:10265000FBD301E0044B5B6A8B4203D1024B9B6AC4
:102660008342F7D37047C0460040054070B5040070
:102670000D00FFF7DBFF02000B002000290080188F
:1026800059418B4202D804D1824202D901204042F2
:10269000C117002902DBFFF7D5FF70BD024B034ACB
:1026A00003483F2100F0B0FDA0B4001050B9001065
:1026B000BCB4001070B504000E00EFF3108572B6C4
:1026C0001B4B1B68002BFBD0BFF35F8F002E1CD071
:1026D0002000FEF7E9FE174B83420BD019002000C3
:1026E000FEF7EAFE01212000FEF7D6FE0123A340FB
:1026F000114A1360114BA400E650BFF35F8F0C4BDF
:1027000000221A6085F3108870BD0C4BA2000021D6
:10271000D1500122A2400A490B7893430B7005491E
:102720002000FFF70BF800212000FEF7B5FEE4E7DC
:10273000280100D08925001038600540F40D0020E4
:1027400032110020F0B5DE4600B584B0040015005B
:1027500001921E000293FFF769FF03958E4202D893
:102760004ED185424CD9EFF3108B72B6274B1B68C4
:10277000002BFBD0BFF35F8F254A17780125A540BA
:10278000EBB23B431370234B5D63221D9200019912
:10279000D150214AA100029888501B6A2B4212D1C5
:1027A0001C4B1B6C2B4208D00020BFF35F8F174BD4
:1027B00000221A608BF3108823E0184B184A19483E
:1027C000C52100F021FDFFF731FF8E4214D802D160
:1027D000039B834210D80E4B1B78BB420ED00D4B8F
:1027E0001D625D631F222240012393400E4A136045
:1027F000074B1F700120D8E70020D6E70120D4E75F
:10280000012004B080BCBB46F0BDC046280100D00A
:10281000321100200040054014110020CCB80010F7
:1028200034B90010F0B8001080E200E0EFF3108C33
:1028300072B60B4B1B68002BFBD0BFF35F8F0123DD
:102840008340084A136208490A789A430A70BFF322
:102850005F8F034B00221A608CF310887047C046CC
:10286000280100D0004005403211002010B5002999
:102870001DD0037B99421AD804684B005B18033BB8
:10288000E418002919D0002A1DD0914221D0002A35
:1028900025D0037B9A4222D8006853009B18033B43
:1028A000C3189970217800291FD1227010BD104BD8
:1028B000104A1148682100F0A7FC104B104A0E483E
:1028C0006F3100F0A1FC0F4B0D4A0B48702100F056
:1028D0009BFC0D4B0A4A0848712100F095FC044B03
:1028E000044A0548682100F08FFC59702270DDE72A
:1028F000D0B5001054BA0010ECB5001038B6001076
:1029000040BA001044B6001050B6001070B5060072
:102910000D001400002914D0002A14D043688068E8
:102920009847002806D0220029003000FFF79EFFBC
:10293000280007E02A0021003000FFF797FF200061
:1029400000E0100070BD0800FCE7000010B5002397
:10295000437301338373037BC3730123027B9A4266
:1029600013D9002B0BD0027B934208D801685A0080
:10297000D218033A8A180133DBB25370EEE70C4BDE
:102980000C4A0D48682100F03FFC002A09D0924211
:1029900007D8016853009B18033BCB1800225A70DC
:1029A00010BD034B034A0448682100F02DFCC046CB
:1029B000D0B5001054BA0010ECB5001010B501737A
:1029C00042608360FFF7C2FF10BD000070B50400D5
:1029D000081E00D170BD002931D0237B99422ED82A
:1029E00022684B005B18033BD3185A78002AF1D0B9
:1029F0002BD0237B9A4228D8216853009B18033B95
:102A0000CB185D7800215970002824D0237B984290
:102A100021D8216843001B18033BCB1800215970B3
:102A200001002000FFF772FF060029002000FFF7D9
:102A3000CDFF020031002000FFF768FFCAE7094B15
:102A4000094A0A48682100F0DFFB064B064A07489E
:102A5000682100F0D9FB034B034A0448682100F0C9
:102A6000D3FBC046D0B5001054BA0010ECB500102E
:102A700070B505000C00160000292ED033D0037B62
:102A8000994230D803684900091903395B185A780C
:102A9000002A2ED19A78002A31D11978FFF796FFB3
:102AA0000300002E0AD0EA7B002A2ED1AA7B002A3E
:102AB00003D1EA7B002A3AD1AC73EC73002B3CD1F2
:102AC000002C4DD02B7B9C424AD82A6863001B19EE
:102AD000033BD31800225A7070BD244B244A25486A
:102AE000382100F091FB244B244A2548682100F04E
:102AF0008BFB244B1E4A1F483A2100F085FB224BDA
:102B00001B4A1C483B2100F07FFB002A09D0297B8F
:102B10008A4206D82E6851008A18033AB2185470B7
:102B2000C4E7154B154A1648682100F06DFB174B9A
:102B30000F4A1048422100F067FB002B0AD02A7B85
:102B4000934207D82A6843001B18033BD31800227E
:102B50009A70B5E7084B094A0948682100F054FB10
:102B6000054B064A0648682100F04EFB68B9001084
:102B70002CBA001070B90010D0B5001054BA001073
:102B8000ECB50010A8B90010D0B9001014B70010AF
:102B900070B504000A00457B2900FFF769FF6073E8
:102BA000280070BD70B50400002966D0437B8B42BD
:102BB0000ED0002911D0037B99420ED805684B0036
:102BC0005B18033BED18AB78002B0CD1002055E0CF
:102BD0000121FFF7DDFF012050E0294B294A2A4857
:102BE000682100F011FB002B1FD0027B93421CD800
:102BF00000685A00D318033BC218C35C8B421AD03A
:102C0000002B1BD0227B934218D820685A00D3187F
:102C1000033BC01843788B4216D0002BF0D11B4BDE
:102C20001B4A1C486B2100F0EFFA154B154A164859
:102C3000682100F0E9FA6B78137007E0104B114A35
:102C40001148682100F0E0FA6B7843700023AB7004
:102C50006B7001222000FFF70BFF0200617B8142B5
:102C600005D02000FFF752FE6073012006E00A4BFA
:102C7000074A0848712100F0C7FA002070BDC0461D
:102C8000D0B5001054BA0010ECB50010ACB3001071
:102C900014BA001070B90010F4B9001070B5046BCC
:102CA000E30701D4200070BD02003032C0239B0135
:102CB00013430A4A1A60456A836AAD01ED18AD02F2
:102CC000062000F0CDF9064901F09EFC0100280025
:102CD00001F09AFC0021FFF7C9FCE3E701030000C3
:102CE0004E0E000070B504000E001500FFF7D6FF71
:102CF00022002C32E36A5E40354080235B0113439F
:102D00001D60206370BD000070B505000C0006203A
:102D100000F0A6F9C000210001F076FCC60908D039
:102D20000E4B9E4216D87F230340013334005E08C9
:102D300000E001246C62AE62002200212800FFF74F
:102D4000D1FF062000F08CF98000A101891901F063
:102D50005BFC70BD0026024CECE7C046FEFF0000A5
:102D6000FFFF000010B505394901013AD2001143B7
:102D7000002B09D002220A43012B07D00021114366
:102D80006E22FFF7AFFF10BD0022F4E70421F6E743
:102D9000002909D00A22064B9C4660444342584110
:102DA000044B4000C252704780225200F3E7C046F5
:102DB0000080FCBF2411002070B505000C00062027
:102DC00000F04EF9061E27D0164B9D4226D08022D9
:102DD000D203154B1A60154B1A60154B9B681100F6
:102DE0009943FAD100212800FFF7D2FF21002800E3
:102DF000FFF78AFF06000023012208212800FFF7C1
:102E0000B1FF2A002C3280239B01134310221A6049
:102E1000084B2B630323AB64300070BD8022120487
:102E2000D7E7C0460080034000E0004000F00040CB
:102E300000C0004001030000064B9A6A8369DB066C
:102E400006D5044B9B6A9B1A8B42F7D9002000E001
:102E50000120704700400540F8B5DE4657464E4613
:102E60004546E0B506000F0015000A9A934250D37C
:102E70001A0E92461B0298460A9A00234046514673
:102E800001F000FC81467400A419A4002F4B9C465D
:102E900064446368834200D26060331FDBB29B46A8
:102EA000012B3CD9C0239B012343802212011A60CD
:102EB000274BB200D158002907D0586901F0A4FB74
:102EC000431C5800C0180338FDD26D0123685D40D3
:102ED000E0222A4080235B0123431A605A46012ADC
:102EE00028D980239B012343802212011A604B467C
:102EF00063604A4600234046514601F0C3FB144B31
:102F0000B60098510120F0BCBB46B246A946A04687
:102F1000F8BD104B104A1148332100F075F9012F0C
:102F2000C0D1C0239B01234303221A60A368DB079F
:102F3000FCD5CAE72168794003220A401A60A368D9
:102F40000125BD401D42FAD0CBE7C04600800040BD
:102F5000140E002060BA0010B8BA001074BA001045
:102F600030B583B00C2000F011F9FEF7C9F9002844
:102F70000DD0002304E02E4A99002E4888500133DA
:102F8000092BF8D92A4B2C4A5A6203B030BD2B4B7F
:102F900000229A6700F002F9294B01221A60274BA0
:102FA0005B6C012BFBD1274B03221A60234B9B6BDD
:102FB000012BFBD1013300930433234A0121234821
:102FC00000F054F805230093214A0121214800F024
:102FD0004DF8214B0093002202210420FFF73CFF13
:102FE0001E4D00952B00002201210520FFF734FF24
:102FF000104C00942300002200210720FFF72CFF33
:1030000000942300002200210820FFF725FF0A4B2F
:1030100000932300002200210920FFF71DFF0095E7
:103020002B00002200210620FFF716FFADE7C04667
:10303000140E0020006CDC021BB700000080004072
:103040003CB0004030B00040002F68590080024082
:10305000008C864700C00240001BB7004059730730
:10306000014B8000C0587047140E0020F0B5C646D2
:1030700000B504000E0017001D00374801F0C4FA27
:103080008046364BFA18364B9A4239D80100380040
:1030900001F0BAFA0200103A98235B009A4235D840
:1030A0006B1E062B38D8069B013B062B34D83F09F4
:1030B000474537D32D04069B1B031D432368002B74
:1030C00036DB284B9C4244D080235B01264A1360A8
:1030D000264A1360264A926819009143FAD1266065
:1030E000A060221DC0239B01134321221A60226885
:1030F000002AFCDAE56008221A6080BCB846F0BD00
:103100001C4B1D4A1D48112100F07EF81C4B1A4A29
:103110001A48192100F078F81A4B174A17481C2151
:1031200000F072F8184B144A1448232100F06CF890
:1031300022683F231340B342C3D1A3681B051B0D74
:103140008342BED1E368EE22D2021340AB42B8D133
:10315000D3E780239B01B9E7001BB70080E84BD37E
:1031600080F8A93200C0024000E0004000F00040BA
:1031700000C00040C8BA0010ECBB001028BB001013
:1031800068BB001084BB0010D0BB001080239B00E4
:103190000343014AD362704700800540064BAA22D0
:1031A00012011A602F22DA60044B054A1A60024BA2
:1031B0005B68002BFBDA7047004002400060024071
:1031C00000B0FA0000BEFDE703000A4A1268002AB8
:1031D00008D0084A1068C318074A9A4206D3054A1D
:1031E00013607047034A05491160F2E7012040422D
:1031F000F7E7C046880E00200000042034110020AC
:1032000010B5FFF7DFFF000030B583B00D001900E7
:10321000002A0DD0084B002A0CD0084C01920093D4
:103220002B000200200001F0D7FF0120FFF7CAFFAA
:10323000034BF0E7024AF0E7F8BB001008BC0010AF
:103240003CAF001070B52B4B2B4A1A602B4B2C4A0D
:103250001A602C4B9A682A4B9343FAD12A4C01E00E
:1032600008CC9847294B9C42FAD3FFF779FE234BB1
:10327000274A1A60234B9B68DB43DB01FAD1254BBD
:1032800040229A675A671A67DA66234C09E0234B93
:10329000234A24488721FFF7B7FF2000FEF7B0FB41
:1032A0000834214B9C4209D22368002BF5D0012B16
:1032B000EDD12000FEF7B1FB0834F2E71B4DA96801
:1032C0001B4CC022200001F0AFFDAC60EFF3058382
:1032D000002B00D000BEFEF74DF8FEF77BFBFEF79B
:1032E000E3FE144C01E008CC9847134B9C42FAD300
:1032F00070BDC04600E00040BFCDFBFE00F00040C6
:10330000FE7F3C0000C00040A40C0020B40C002054
:10331000FFFFFF0100F001409C0C002038BC0010B2
:10332000ACBC001058BC0010A40C002000ED00E064
:1033300000000020B40C0020B80C00200FB400B531
:1033400083B0084801F018FF049B002B07D005A9A3
:103350000191180001F020FF034801F00DFF01204A
:10336000FFF730FF9CBC00104CAF00109A4200D217
:1033700088547047704710B5002802D00B68496820
:10338000984710BD0100002007E083001B185B0078
:10339000501C08601078C01830380A681378303B29
:1033A000DBB2092BF1D97047F0B5DE4657464E46E1
:1033B0004546E0B583B093461F000C9B9A460D9C92
:1033C0000E9B99460F9B9B0703D0B8460F00060043
:1033D00022E00192A34688464E46B9460700B44211
:1033E00007D2551C4B4641462020B84701342A00DD
:1033F000F5E73D004F465C46019B9B46B14646467D
:10340000B84637002E0007E0013C551C5346185DB6
:1034100043463900B0472A00002CF5D135003E0064
:1034200047460F9B9B0707D4100003B0F0BCBB4678
:10343000B246A946A046F0BDB0464E46B9462F005A
:103440005D46531BB342EFD2541C4B4641462020ED
:10345000B8472200F5E7F0B5CE46474680B585B0BF
:10346000944698460C9D0D9C0EAB1B789946109A7D
:10347000119B129EB7071CD4002B0CD0F7070AD55E
:103480004F46002F02D10C37374204D0013B02E0F7
:1034900030272F550134944201D21F2CF8D9F70759
:1034A00007D59C4205D21F2C03D830272F55013455
:1034B000F5E7F70615D5770505D4002C03D094421F
:1034C00024D09C4222D00F9A102A2BD00F9A102A77
:1034D00030D00F9A022A35D01F2C02D830222A551C
:1034E00001341F2C05D84A46002A31D02D222A55F6
:1034F0000134039602930194009543466246FFF718
:1035000053FF05B0C0BCB946B046F0BD621E012CE9
:1035100006D00F9F102F01D01400D4E7023CD2E751
:103520001400D0E7B206D1D41F2CCFD878222A5568
:103530000134D1E7B206CCD51F2CCAD858222A555F
:103540000134C9E71F2CC7D860322A550134C3E7BC
:10355000720703D52B222A550134CAE73207C8D592
:1035600020222A550134C4E7F0B5DE4657464E46C0
:103570004546E0B593B081468A46089209931CAB54
:1035800010CB1B789B461E9D219B9846002C03D197
:10359000102342469A4390468023DB0046461E4055
:1035A00042461A4212D0002C22D000260EE03031C2
:1035B000CBB2771C0AAA93552900200001F024F809
:1035C000AC4216D31F2F14D83E000400290020005F
:1035D00001F01AF8C9B20929E9D943469B0605D575
:1035E00041235B18DBB20A3BDBB2E2E76123F8E779
:1035F000270043460693209B05931F9B0493039546
:103600005B46029301970AAB0093099B089A5146C7
:103610004846FFF720FF13B0F0BCBB46B246A946B0
:10362000A046F0BDF0B5DE4657464E464546E0B5ED
:1036300095B0089009910A920B931E9E1F9C20AB97
:103640001B789B46229B9946239D269B9A463300D6
:10365000234303D1103352469A4392468023DB0022
:1036600057461F4052461A4219D0330023432DD0EB
:10367000002714E03032D3B27A1C90460CAAD355FE
:103680004A462B003000210000F0FCFFA5421FD865
:1036900019D043461F2B1BD8474606000C004A464C
:1036A0002B003000210000F0EDFFD2B2092AE1D951
:1036B00053469B0605D541239B18DBB20A3BDBB280
:1036C000DAE76123F8E7B145E3D901E00023984642
:1036D00053460693259B0593249B04934B460393E3
:1036E0005B460293434601930CAB00930B9B0A9AF3
:1036F00009990898FFF7AFFE15B0F0BCBB46B2467B
:10370000A946A046F0BD0000F0B5DE4657464E463D
:103710004546E0B591B083468A460C9298461A9C7D
:1037200008941B9D099522002B002000290001F020
:103730002CFA002800D0E5E001225242D74B2000AD
:10374000290001F01DFA002800D0DBE001225242DE
:10375000D34B2000290001F0FDF9002800D0D1E072
:1037600000220023089E3000099D290001F0F2F993
:10377000002800D0DDE0089A099B06920793802379
:10378000DB001E9A1A400D921E9A1A4201D106239E
:103790001C930698079904000D000A0006000243D6
:1037A00000D1D1E0080D4005400DBE4CA446604458
:1037B0000A03120BBC4B13431F0001F0F9F9BB4A7B
:1037C000BB4B01F080F9BB4ABB4B01F05DF9040033
:1037D0000D000022B94B3000390001F050F9B84A11
:1037E000B84B01F070F902000B002000290001F035
:1037F0004BF901F0F5F9814601F0DAF904000D000A
:10380000B14AB24B01F05FF90022B14B01F03CF933
:1038100001F0E6F90600AF4AAF4B2000290001F0A5
:1038200052F904000D00300001F0C2F9AB4AAC4B74
:1038300001F049F902000B002000290001F01FF9F6
:1038400004000D0002000B0001F03DF90A900B91FD
:10385000A44BF31800261F0522002B00200029008E
:1038600001F012F90E900F9122002B000020802110
:10387000C90501F004F904000D0000229A4B0A98D2
:103880000B9901F006F90022984B01F0FDF80200B7
:103890000B000A980B9901F0FCF80022944B01F000
:1038A000F3F802000B000A980B9901F0F2F80200FD
:1038B0000B002000290001F0E7F802000B000E9831
:1038C0000F9901F0E6F80022774B01F0DDF83200A5
:1038D0003B0001F0F8F806000F0004000D00069A06
:1038E000079B01F04DF9002830D001235B429C4634
:1038F000E14400227D4B3000390001F0CAF8040099
:103900000D0023E01E9B04931D9B03931C9B0293BD
:10391000089A099B0092019343460C9A51465846D7
:1039200000F0FCF811B0F0BCBB46B246A946A04678
:10393000F0BD0023002406930794069680231B06FF
:103940009C46654407951AE7002399464B46633326
:10395000C62B1ED804261E9B1B0526D52B002343F1
:103960000FD0644A644B0698079901F001F90028CA
:1039700079D00022614B0698079901F0EBF80028F6
:1039800071D01C9B4B4506DD4A469B1A013B1C939C
:1039900003E00526DFE700231C938023DB001E9A4B
:1039A0001A431E920026002399461D9B9E4264D214
:1039B0009F1B02231E9A1A400A921E9A134202D09B
:1039C000002E00D000274B46002B07D022002B00F2
:1039D0000698079901F05DF80690079100220023F0
:1039E0000898099901F0B6F8002848D1444B1E9A6E
:1039F0001340049303971C9B0293069B079C009320
:103A0000019443460C9A5146584600F087F8002E20
:103A100000D187E71E9B9B063DD54525441C4346A8
:103A2000020051462800D8474A46D317D2185A40B8
:103A300005230593013E0496002303930A33029362
:103A40004B46DB0F019300924346220051465846F5
:103A5000FFF78AFD0A9B002B00D163E702005F4657
:103A60000C9E1D9D54E01C9B002B9ED00D9B002B9B
:103A70009BD01C9B013B1C9397E7002799E7069C72
:103A8000079D2200290080200006844661440B0027
:103A900006920793AAE76525C0E7C046FFFFEF7FC0
:103AA000FFFFEFFF01FCFFFF0000F03FFB799F509D
:103AB0001344D33FB3C8608B288AC63F0000F83F49
:103AC00061436F63A787D23F71A379094F930A407F
:103AD0000000E03F1655B5BBB16B0240EF39FAFE6E
:103AE000422EE63FFF03000000002C40000024406F
:103AF000000018402D431CEBE2361A3F80842E4113
:103B0000FFF7FFFF541C434651462020B8472200D0
:103B1000931BAB42F6D3100004E7C046F0B5DE4677
:103B200057464E464546E0B595B0069007919346F8
:103B30009946209F1E9A1F9B1000190001F025F83E
:103B4000002831D101225242BF4B1E981F9901F02B
:103B500001F8002837D101225242BC4B1E981F9910
:103B600001F00EF800283DD10022B94B1E981F9994
:103B700001F006F8002850D10022B64B1E981F997C
:103B800000F0E8FF002848D1002200231E981F996A
:103B900000F0E0FF002850D100239846229B5B05EF
:103BA00000D4B6E0002458E0229B0393219B0293AB
:103BB00003230193A84B00934B465A460799069856
:103BC000FFF7F2FB0EE1229B0393219B0293042358
:103BD0000193A24B00934B465A4607990698FFF76C
:103BE000E3FBFFE00423229A1A4022990B4210D0F3
:103BF0009B4B002A0FD00422229903912199029114
:103C0000019200934B465A4607990698FFF7CCFB62
:103C1000E8E0944BEDE70322EEE7229B0493219B1F
:103C2000039302971E9B1F9C009301944B465A4698
:103C300007990698FFF768FDD4E01E9A1F9B0020A5
:103C4000002100F01CFF1E901F9101239846A5E75C
:103C50000CAB30221A55013F01341F2C01D8092F1B
:103C6000F6D81E981F9900F0BBFF050000F0A0FFDA
:103C700002000B001E981F9900F001FF7A4BFA001A
:103C80009B181A685B680A920B9300F01CFF08905F
:103C9000099100F0C9FF060000F086FF02000B004A
:103CA0000898099900F0EBFE0890099100226F4BEB
:103CB00000F066FF00282ED00136300000F074FFBF
:103CC00002000B000A980B9900F04AFF002801D06F
:103CD00001350026002F2CD1280000F069FF0200DA
:103CE0000B001E981F9900F0CAFE06000F0000226C
:103CF0005E4B00F02FFF002846D100225B4B3000C6
:103D0000390000F03DFF00283ED1EB073CD50135DE
:103D10003AE0062746E70022544B0898099900F03C
:103D200019FF0028D6D1002E01D0F307D2D50136D5
:103D3000D0E7AA461F2C11D8013F0A21300000F01D
:103D400063FC651C30310CAB19550A21300000F0C2
:103D50005BFC092E0ED906002C00EBE755461F2C04
:103D60000CD87B1E002F09D00CAA302111551F0042
:103D70000134F4E72B0055461C00F0E71F2C03D854
:103D80000CAB2E221A5501341F2C10D80A21280002
:103D900000F012FC661C30310CAB19550A212800CA
:103DA00000F00AFC051E01D03400EDE734000323C7
:103DB000229A1340012B1CD01F2C06D84346002BFF
:103DC00032D00CAB2D221A550134229B0393219B38
:103DD000029301940CAB00934B465A460799069800
:103DE000FFF7E2FA15B0F0BCBB46B246A946A046C2
:103DF000F0BD219B002B13D04346002B02D10C3386
:103E000013420FD0219B013B2193190003E00CAB1F
:103E100030221A5501348C42CED21F2CF7D9CBE771
:103E20002199F8E72199F6E7229B5B0704D50CABB3
:103E30002B221A550134C8E7229B1B07C5D50CABB2
:103E400020221A550134C0E7FFFFEFFFFFFFEF7F8D
:103E500065CDCD4165CDCDC1C8BC0010CCBC001036
:103E6000BCBC0010C4BC001070BE00100000E03FDD
:103E7000F0B5DE4657464E464546E0B593B082461D
:103E80008B4690461193002900D100E30027544649
:103E9000119B1878002800D1FCE2252809D07D1C50
:103EA00043463A005946A047119B013311932F0016
:103EB000EEE7013311930025119A11780B00203B96
:103EC000D8B2102803D88300C248C3589F460B00BD
:103ED000303BDBB2092B2CD92A292FD000230A939F
:103EE000119B1A782E2A39D000239946119A1378FB
:103EF000683BD9B2122976D88B00B749CB589F4678
:103F000001231D4301321192D6E702231D430132E2
:103F10001192D1E704231D4301321192CCE708230B
:103F20001D4301321192C7E710231D430132119244
:103F3000C2E711A8FFF726FA0A90D1E71C9B1A1DC9
:103F40001C921B68002B04DB0A93119B0133119315
:103F5000C6E7022215435B420A93F6E78022D200AD
:103F600015435A1C11925A781300303BDBB2092BCF
:103F700004D92A2A07D000239946B7E711A8FFF7EA
:103F800001FA8146B2E71C9B1A1D1C921B68002B8C
:103F900004DB9946119B01331193A7E70023F8E74F
:103FA00080235B002B43511C119152786C2A01D065
:103FB0001D0018E0C0239B001D430131119112E048
:103FC00080232B43511C11915278682A01D01D0087
:103FD00009E0C0231D430131119104E080235B00FF
:103FE0001D4301321192119B1878672816D8252895
:103FF00026D30300253BDAB2422A21D89300774A20
:10400000D3589F4680239B001D4301321192EAE75B
:1040100080235B001D4301321192E4E778280FD81A
:1040200069280DD30200693AD2B2012393406C4A49
:1040300013420FD11A0600D503E25B0500D594E1C7
:104040007D1C43463A005946A047119B013311930A
:104050002F001DE7782809D0622838D06F2838D083
:10406000582838D010239D430A2600E010265828EF
:1040700033D0692803D0642801D00C2295436A0507
:1040800001D50122954369282AD0642828D0AA05A1
:1040900000D5A7E0EA0500D5C0E06A0600D4D2E06A
:1040A0001C9A111D1C911168FF220A4005950A9B5C
:1040B00004934B46039302960023019300924346D8
:1040C0003A0059462000FFF74FFA070027E0022682
:1040D000CDE70826CBE71026C9E720221543C8E71D
:1040E000AA0520D4EA0550D46A0666D51C9A111D8B
:1040F0001C911168FF220A40D01711184140059504
:104100000A9B04934B4603930296D20F01920091AF
:1041100043463A0059462000FFF726FA0700119B54
:1041200001331193B4E61C9A073207218A43110028
:1041300008311C91116853689C46DB170C930D9352
:104140000C9A0D9B100048400E90624653400F930E
:104150000E980F990C9A0D9B801A99410E900F9111
:1041600008950A9B07934B460693049600230593F4
:104170006346DA0F02920090019143463A00594695
:104180002000FFF74FFA0700C9E71C9A111D1C9188
:104190001268D0171118414005950A9B04934B46AD
:1041A00003930296D20F0192009143463A0059467A
:1041B0002000FFF7D9F90700B1E72A0605D51C9AB8
:1041C000111D1C910023D25E96E71C9A111D1C91B3
:1041D000126891E7D4BC001018BD001064BD001037
:1041E000419000001C9A073207218A4311000831D0
:1041F0001C9108950A9B07934B460693049600234F
:1042000005930293536812680092019343463A0063
:1042100059462000FFF706FA070080E71C9A111D97
:104220001C9105950A9B04934B4603930296002329
:1042300001931368009343463A0059462000FFF764
:1042400093F907006BE72A0606D51C9A111D1C91ED
:1042500012681204120C29E71C9A111D1C91126895
:1042600024E746281AD01C9B0733072293431A00E1
:1042700008321C9204950A9A03924A4602921A68DE
:104280005B680092019343463A0059462000FFF7CD
:1042900045FC0700119B01331193F9E520231D43D1
:1042A000E1E7672801D0472802D180231B011D4385
:1042B000452801D0472801D120231D431C9B0733EB
:1042C000072293431A0008321C9204950A9A03921B
:1042D0004A4602921A685B680092019343463A008C
:1042E00059462000FFF710FA0700119B0133119384
:1042F000CEE502231A002A4092462B421FD0012508
:104300001C9B1A1D1C927A1C9146187843463A0051
:104310005946A0475346002B16D1119B01331193E8
:104320004F46B5E5561C434659462020B8472B005A
:1043300032005D1C9C42F5D83C001700E0E70123E9
:104340003A0027000A9CF4E74A46A1460A9C06E088
:10435000571C434659462020C84735003A006E1C7A
:10436000AC42F5D84C469146D7E71C9B1A1D1C92CF
:104370001E684B46002B00D1013B310001E00131AA
:1043800013000A78002A02D05A1E002BF7D1891B8D
:1043900010918023DB002A001A4092461D4203D070
:1043A000494501D94B46109302231A002A400B922B
:1043B0002B4205D03A00574623004C46994620E050
:1043C0003A00109B5F46B346260006E0541C434665
:1043D00039002020B0472B0022005D1C0A99994229
:1043E000F4D834005E46BB461095574623004C4631
:1043F000994606E01C000136551C43465946C847FD
:104400002A003078002804D0002FF4D0631E002C3E
:10441000F0D117004C460B9B002B03D1119B0133AD
:10442000119335E50A9F109B06E0561C43465946FA
:104430002020A0472B0032005D1C9F42F5D81700BA
:10444000ECE721232B431C9A111D1C911268059344
:10445000082304934B4603931023029300230193F4
:10446000009243463A0059462000FFF77DF80700C6
:10447000119B013311930BE57D1C43463A005946CD
:104480002520A047119B013311932F0000E50B4B12
:104490009A46FBE4A246474502D343465A1E00E033
:1044A0003A00434659460020D047380013B0F0BCCC
:1044B000BB46B246A946A046F0BDC04675330010C3
:1044C0000EB430B584B0010007AC08CC03940122CF
:1044D000054D009452422800FFF7CAFC04B030BCDE
:1044E00008BC03B01847C0466D3300100CB430B59B
:1044F00085B00A0008AC08CC0394054D0094010077
:104500002800FFF7B5FC05B030BC08BC02B0184766
:104510006D33001010B582B0044C009313000A00F4
:1045200001002000FFF7A4FC02B010BD6D330010A5
:1045300000B585B002900391012104480093130057
:104540004A4202A9FFF794FC05B000BD7733001082
:1045500001480421014B1847B0020020814500109A
:1045600010B5010018231B8814221088984710BD2D
:1045700010B5010018231B8816221088984710BD1B
:10458000F0B5C64600B507000E0000250123984689
:1045900000E00135B5420AD2AC003C192068FFF7B3
:1045A000DFFF20600028F4D100239846F1E7404661
:1045B00080BCB846F0BD0000124A936F9B0815D22C
:1045C0009066D166002905D0FFE7FFE7FFE7516F4E
:1045D000106F704704B580210906C21751400028AA
:1045E00000D0C84306F0C8FA002104BDF0B5146E2F
:1045F000556E576F166FFFF7E3FF146655665767E2
:104600001667F0BD000000D0114A936F9B0813D2CB
:1046100010665166002905D0FFE7FFE7FFE7516FFD
:10462000106F704704B5002801D00020C04306F089
:10463000A3FA002104BDC046F0B5146E556E576F45
:10464000166FFFF7E5FF1466556657671667F0BDEE
:10465000000000D094464A4A926F9208624601D206
:1046600028E0C046F0B5464E346E756E776F366FF3
:1046700000F020F89446424A14665566576716675C
:104680006246F0BD94463E4A926F9208624601D25D
:1046900054E0C046F0B53A4E346E756E776F366FA3
:1046A00000F04CF89446364A14665566576716670C
:1046B0006246F0BD002B24DB11D000293EDA00B5A4
:1046C000C943404200D1013100F038F8C9434042AB
:1046D00000D10131DB43524200D1013300BD002A39
:1046E000EBD1002801D1002905D00020C90FC9074E
:1046F00001D1C043410800B506F036FA002200237C
:1047000000BD00B500290ADBDB43524200D1013372
:1047100000F014F8C943404200D1013100BDC94343
:10472000404200D10131DB43524200D1013300F05D
:1047300005F8DB43524200D1013300BD002923D1EB
:10474000002B18D1002A0CD0BC460D4F38667A6673
:1047500000210023FFE7FFE7FFE77A6F386F674626
:104760007047002801D00748010000B506F0FCF9A9
:104770000022002300BD02000B0000200021704732
:10478000000000D0FFFFFFFF002B00D0BFE0130CA4
:1047900028D1002AE7D080B4114F39667A66FFE746
:1047A000FFE730B4040C7B6F396F1B0423433B6677
:1047B0007A66FFE7FFE7FFE7C04684B27B6F3D6F95
:1047C0001B0423433B667A66FFE7FFE7C0460023EE
:1047D0002C042D0C7A6F386F00196941B0BC7047FA
:1047E000000000D0F0B594460025140E01D112024D
:1047F0000835140F01D112010435940F01D1920034
:104800000235D40F01D152000135D40B0134254FAC
:104810007C66254C3C660E0C93B2FFE7FFE7FFE792
:104820003C6F6643360C7703BE467343DF0B5B0475
:10483000C01AB941130C7343DB18C91ACE0866437A
:10484000360CB64493B273431F0F1B01C01AB94113
:10485000130C73431F0B1B05C01AB941860D8F0241
:104860003E436643360C092D24DB520A7243801AFC
:104870007703460A6643360C16235B1BDE40DF4097
:10488000BF1964466643821B704604350633010037
:10489000D940A840C01900D30131A24206D200235A
:1048A000F0BD0000000000D0FFFFFFFF121B013031
:1048B000F3D3F1E709277F1BFE406446A2B272439F
:1048C000801A00D20139220C7243130C1204821A8E
:1048D00099410B007046043513370100F940A84098
:1048E000801900D30131002B02D1A2420AD2F0BDBF
:1048F000013000D30131121BFAD2013BF8D1A242A0
:1049000000D2F0BD013000D30131121BF7E7F0B542
:104910001C0C00D080E00CB400251C0A04D11B0242
:10492000160E3343120208351C0B04D11B01160F5F
:104930003343120104359C0B04D19B00960F334383
:1049400092000235DC0B02D192185B4101351C004C
:10495000971864410134464F7C66464C3C660E0C09
:10496000FFE7FFE7FFE7C0463C6F6643360C77037F
:10497000BE4697B27743C01B00D20139C01B00D29C
:1049800001399FB27743C91BC91B170C77437E04BB
:10499000FF0B801BB941CE086643360C0C2D33DB70
:1049A000B644120B1F053A431B0B97B27743C01B4B
:1049B00000D201399FB27743C91B170C77433E04DD
:1049C0003F0C801BB941860D8F023E436643292769
:1049D0007F1BFE400C3D7746AF40BF1930BCA2B2F2
:1049E000ABB272437343801A9941220C7243130C89
:1049F0001204801A994102000B000137001BA941E3
:104A0000F9D2781E0021F0BD0C277F1BFE407746AF
:104A10007F0BAF40FF19E0E700245D1C07D0144F67
:104A20007D663966FFE7FFE7FFE7FFE73C6F95B27A
:104A30009EB265436643401BB141150C1E0C654395
:104A4000664336042F0C3E432D04401BB14199426E
:104A500004D202000B0020000021F0BD01D19042E1
:104A6000F7D3801A994101349942F2D3F6E7000056
:104A7000000000D0FFFFFFFF48404140484018B40D
:104A8000134B5B68019308BD18B4114B1B6801936D
:104A900008BD94460F4A926F920805D2624618B438
:104AA0000B4BDB68019308BD0A4AF0B5146E556ED6
:104AB000576F166F6246FFF7F2FF064A1466556697
:104AC00057671667F0BD18B4014B9B68019308BD8A
:104AD000BC0E0020000000D0FFB5504042405040C6
:104AE00059404B40594000E0FFB5154F4C00640D54
:104AF00003D0BC4204D10C0314D80020090D0905D1
:104B00005C00640D03D0BC4204D11C030AD800220F
:104B10001B0D1B0501264B4009D44B4003D58B428E
:104B200000D18242FFBD9942FCD19042FFBD0B43B0
:104B3000DB1803431343F5D0C9434918FFBD0000F8
:104B4000FF07000000B5FFF7CFFF01D0002000BD38
:104B5000012000BD00B5FFF7C7FF804100BDC04682
:104B600000B5FFF7C1FF01D9002000BD012000BD45
:104B700000B5FFF7B1FF01D9002000BD012000BD45
:104B800000B5FFF7A9FF804100BD012040054A00A4
:104B9000121804D85A00121801D8002070470120BA
:104BA00070470020704700000021002805D17047A1
:104BB000C1174840401AFAD0C90713B5064B1B6805
:104BC00098470CBC441CA2401005120B0349091B5A
:104BD00009051943114310BDBC0F00201F0400003C
:104BE00010B54C00620D8023D218DB00D21A5B0591
:104BF0007E2A10DD9E3A13DACC17090349081943BF
:104C00005242D140640001341532202A05DAD040E6
:104C10000843604310BD002010BD0846604310BD2E
:104C2000C80FC018013810BD18B4024B5B6A01935D
:104C300008BD0000BC0E002010B50148FEF77EFB49
:104C4000C0BE001070B513231C78012C14D0012CA9
:104C500014DC022C02DC1F4B1F4A93641F48FFF731
:104C60007FFC1F4B186070BD1E491B4A9800815085
:104C700001331F2BF8D9EAE70023FAE71A48FFF7B8
:104C800077FC05001948FFF773FC023803789B0096
:104C90007F2B19DD10488022290000F0C5F8022C76
:104CA000D7D1134B1A88B5231B029A4209D1114B55
:104CB0001A88114B9A4204D1104B1A88104B9A4211
:104CC000C7D00020FEF73AFB0E4B0F4A0F483221A7
:104CD000FEF79AFA114D0010BC0E00204C33000074
:104CE000BC0F0020394C0010534400005346000014
:104CF00054380000D8380000494600009C380000B5
:104D000059460000D8BE001074BF00102CBF001020
:104D100007B56046002800D100BE01880A0A0230AB
:104D2000DF2AFAD1C9B2820804D30288408800047D
:104D3000104300E00068024A5050039007BD000095
:104D4000BC0E002051434343C9188C46110C83B25A
:104D50004B4310B4040C614392B280B2504362439F
:104D60001C041B0C001910BC59411304120CC01870
:104D7000514161447047000010B50148FEF7DEFA6A
:104D80003CAF001070B513231E781848FFF7F0FBF6
:104D90000500012E11D0012E09DDAB1E1B789B00F2
:104DA0007F2B1DDD12488022290000F03DF81148BC
:104DB000FFF7D6FB104B186070BD0D485422290038
:104DC00000F032F8002300E001331F2BE3D8084A3B
:104DD0009C00A258002AF7D10849054AA150F3E7E0
:104DE000074B084A08484221FEF70EFA53460000D6
:104DF000C00F00204C330000BC0F0020794D001084
:104E000088BF001004C00010BCBF0010014804217E
:104E1000014B1847C002002081450010014B1B6860
:104E200018470000C0020020014B5B6818470000D3
:104E3000C002002010B50300080011001B6898474D
:104E400010BD0000F8B507000D001600437D002BD3
:104E500002D0002400200CE00368110028009847CD
:104E60002DE03B7D10E03B68154802219847601C0F
:104E70000134B44214DA002CF3DD2B19013B1B780A
:104E80000D3B5A425341DBB22A5D0A2AF0D1002B76
:104E9000EED1A042E7DA3B68211A28189847E2E7EA
:104EA000B04203DA3B68311A28189847002E06DD15
:104EB000AD19013D2B780D3B5A4253413B75F8BD6E
:104EC00098C0001070B505000368002B16D00C4B7D
:104ED0001C6805E0290004C92000FFF7B3FF24691E
:104EE000002C09D02368002BF9D0064B1B68002B3F
:104EF000F0D0A342F3D1EDE700232B6070BDC04694
:104F00007C0E0020840E002070B505000C000B689C
:104F1000802B05D023685A1C2260E418257170BDCF
:104F20000800FFF7CFFFF5E7F0B583B007000E00EC
:104F30000092019328E0A368002B04D031003800D0
:104F40009847002827DC2469002C06D0134B1D68E5
:104F5000002DF0D0A542F6D1EDE70099019A104B53
:104F60005B6A9A4209D80E48806A88420FD29A42F8
:104F700001D0012302E0002300E00023002B08D130
:104F800001200021FDF772FB064B1C68DCE70123C2
:104F9000F4E70120404203B0F0BDC046840E00207B
:104FA000004005407C0E002010B5FDF73FFB0200DD
:104FB0000B1E0BDB0D48002112184B41002B0BDBA5
:104FC000002B0DDB0A4805F0DFFD10BD094B0A4A36
:104FD0000A483F21FEF718F901225242084BEFE739
:104FE000044B054A05483F21FEF70EF940420F00E9
:104FF0009C0C0020A0B4001080C00010BCB40010B5
:10500000FFFFFF7F10B5024805F0A6FD10BDC046AA
:105010009C0C0020F0B5CE46474680B583B0060014
:105020000D0090461C00FFF7BFFF81466B1C05D0AA
:10503000002C08D0194F1A4B1C6807E0300001F013
:10504000F3F80500F4E7174FF5E72469002C17D0B3
:105050002368002BF9D0144B1B68002B01D0A3420E
:10506000F3D12A0031002000B8474346002BECD092
:105070006B46D91D0A230B7001222000B847E4E7D4
:105080004B46002B07D16B1E9D41E8B203B0C0BC5C
:10509000B946B046F0BDFFF7B5FFF4E7354E001056
:1050A0007C0E0020454E0010840E002010B582B00A
:1050B00004006B46D81D0470002300220121FFF775
:1050C000A9FF200002B010BD10B5030008001100B8
:1050D000002B05D1044B1A685B68FFF725FF10BD54
:1050E00001204042FBE7C046A0B8001010B5030005
:1050F00008001400013B012B06D8002300222100E8
:10510000FFF788FF200010BD01204042FBE701208F
:1051100040427047012040427047012040427047A2
:105120000300002002229A4240417047094A01E0F0
:1051300010331A001368002B08D08342F8D10029DD
:1051400007D1036913600023036102E0002900D046
:10515000106070477C0E002010B5064B1C6801E003
:1051600098472469002C03D06368002BF8D1F8E736
:1051700010BDC0467C0E002070B5050001F054F84B
:1051800004000023012201002800FFF743FFFFF77E
:10519000E3FF200070BD000070B5A2B004000E0057
:1051A000FFF702FF0500002301930A4833002200A5
:1051B00001A9FFF7BDF9040001A8FFF783FEFFF77F
:1051C000CBFF002D02D1200022B070BDFFF71AFFE7
:1051D000F9E7C046094F00100FB400B583B004A929
:1051E00001C90191FFF7D8FF03B008BC04B018470C
:1051F00010B500F0F9F8012010BD0000F0B583B043
:1052000005000E0000240FE06B46D91D0D230B7026
:105210000020002816D193699B06FCD40B781360FC
:1052200001300131F5E70134B44219DA0D4B1A6847
:105230002F5D0D4BD31859424B410C495B005B5E0F
:10524000BB42E1D06B46D91D0F7000200028EAD187
:1052500093699B06FCD40B78136001300131F5E7AC
:1052600003B0F0BD281100200080FCBF24110020F5
:10527000F0B583B005000E00002704E06B4607334D
:105280001B783B702700B74215DA174B1A689369F1
:105290001024210019401C420DD17C1CEF196B46D3
:1052A000D81D0029EAD19369DB06FCD4136803708A
:1052B00001310130F5E70D4B1B68002B0CD00A4B78
:1052C0001B6850229A63190034315B6B183A1A40FC
:1052D00080235B010B431A60002F02D0380003B01B
:1052E000F0BD033FFAE7C046281100200C0E002055
:1052F00010B5064B1B68002B06D0054A126800212A
:105300009163044A1068984710BDC0460C0E0020F7
:1053100028110020100E002070B504000E001C4B58
:105320001B681C4A98184242504114300500002C5A
:1053300003D0194A1268002A06D0002C19D0164B47
:105340001C60164B1E6070BD1549FCF7B5F80121B5
:105350002800FCF7A1F80E4B1B6850229A63190035
:1053600034315B6B183A1A4080235B010B431A609F
:10537000E5E7094A1268002AE1D000229A63002179
:105380002800FCF789F806492800FCF7D7F9D6E78A
:10539000281100200080FCBF0C0E0020100E002001
:1053A000F152001070B50D001C000D4B1860002A62
:1053B0000BDA002C0EDA0A4B18682900FDF7FCFC0A
:1053C00008480121FFF7B2FE70BD02211000FBF773
:1053D000A3FEEEE702212000FBF79EFEEBE7C046AE
:1053E00028110020D002002010B5064B1B78064B78
:1053F0001B78E1210123002249020448FFF7D2FF74
:1054000010BDC046F0C60010F4C6001000400340B6
:10541000F0B5DE4657464E464546E0B585B0060037
:105420001C0002930EAB187803900F9D109F3368F9
:105430000020D8663368596033680121D966A246D6
:10544000002398469B46002100242BE03379002B53
:1054500031D001232FE00398002801D000202EE056
:1054600001202CE03800A84701000443E4B20029E1
:1054700006D133685B6BDB0602D4002DF2D1F6E770
:10548000002909D1336880229A589346002A1FD1F7
:10549000002C2FD1C1451ED0002C33D101239C46B6
:1054A000E044019AD0452DDA029B013B99464346E0
:1054B000002BCBD000239B02C145CCD00020400262
:1054C0000343501C01901078326803431361D4E702
:1054D0005B6D01240EE0039B002BDDD10AE0380058
:1054E000A84701000443E4B2002906D133685B6B8E
:1054F0009B0502D4002DF2D1F6E70029CCD1336808
:105500001B6EC9E7002C09D0002915D15B46002B82
:1055100016D0DB0718D45B461B0709D5039B3371F4
:10552000404605B0F0BCBB46B246A946A046F0BD19
:1055300002235B429846F1E701235B429846EDE780
:1055400002235B429846E9E702235B429846E5E77F
:10555000F0B5DE4657464E464546E0B583B00500F9
:1055600091469A460CAB1B7801930D9E0E9F0368E3
:105570000022DA660368596003680132DA66D346AE
:105580000023984600242CE02979002901D100202D
:1055900033E0012031E00199002901D0002130E001
:1055A00001212EE03800B04703000443E4B2002C90
:1055B0000DD12A68926F002A09D12A68802151589A
:1055C000546D621E9441E4B2002EEBD1EFE7002C43
:1055D0001ED12A68126949460A7001229446E044A5
:1055E000E144D84514DA5246541E2A68516F1029F6
:1055F000FBD041460029C7D0002080024445CAD0D4
:105600000021490208438021490001431161D4E788
:10561000002C04D0002B0CD001235B429846019B48
:105620002B71404603B0F0BCBB46B246A946A0462B
:10563000F0BD02235B429846F1E70000F0B5D64684
:105640004F464646C0B505000C000520FDF708FD95
:105650000600600880192100FEF7D6FF070043000E
:105660009946814405214846FEF7CEFF80463B1A05
:105670009A46284B9C4224D8700080192649FEF790
:10568000C3FF441C4346023BA34221D32B680022A4
:10569000DA6629680B680432534002321A408023CC
:1056A0005B010B431A602B685246DA612B68424655
:1056B0001A624B464F2B11D950214846FEF7A4FFE2
:1056C0000DE0700080191549FEF79EFF441CD9E7D4
:1056D000134B144A14485D21FDF796FD01202A68FA
:1056E000A023D0502B681A007C32DB6F5C4024046E
:1056F000240C80235B0113431C602B680122DA66B3
:1057000039003000FEF780FFE0BCBA46B146A8463B
:10571000F0BDC0463F420F008096980040787D0162
:10572000DCC000103CC10010FCC0001010B5114BD3
:1057300098421DD01022104B1A60104B1A60104B6B
:105740009B6814009C43231EF9D104710268D4663F
:1057500002686624FF3414600268D36302689363AE
:1057600002688833633CFF3CD450FFF767FF10BDED
:105770000822E0E7E802002000E0004000F00040DE
:1057800000C0004030B585B008AC257800240294F4
:1057900001940095FFF73CFE05B030BD30B585B0F3
:1057A00008AC25780024029401940095FFF7D0FE00
:1057B00005B030BD70B50B0C0024150C002B28D1A2
:1057C000002D37D18BB291B2594300F059F8051E24
:1057D00019D00300083B5A6803239A43043A242A49
:1057E00013D80300132A0AD90460446008331B2A23
:1057F00005D98460C460242A25D003001033002218
:105800001A605A609A60280070BD0021FFF706FBFD
:10581000F9E7002D11D1151C89B292B24A43ADB2FD
:105820009BB26B43110C5B18190C06D1190492B290
:105830001143CAE72B1C0D1CEEE700F009F80C23FE
:1058400000250360DFE70300046118334461D6E7F5
:10585000014B18687047C046F00200200EB400B536
:1058600082B003AB0100054804CB0068019300F04F
:105870003BFD02B008BC03B01847C046F002002050
:10588000F0B54E464546DE465746E0B50D000B35B1
:10589000060083B0162D21D8102900D9B0E000F001
:1058A000ADFA102518230220D04FFB181A005C68AF
:1058B000083A944200D1B3E0032263689343E2685C
:1058C000A168CA6091600121E3185A6830000A4358
:1058D0005A6000F095FA2000083094E007239D43B9
:1058E00000D58DE0A94200D98AE000F087FAFC23B8
:1058F0005B009D4200D2A4E1680A00D18AE004283E
:1059000000D966E138239846A80980443930C1009F
:10591000B64F79184C680839A1420ED003239C4633
:1059200004E0002ACBDAE468A14206D0624663684C
:1059300093435A1B0F2AF4DD40463A003C69083273
:10594000944200D177E0032163688B439946591B49
:105950000F2900DD79E17A613A610029B3DA80220A
:105960009200934200D30DE15909DA0801238B40DC
:10597000D2007968D2190B4391687B60E260A16024
:105980009460CC60012182109140994259D80B4219
:1059900005D103229043490004300B42FBD003237E
:1059A0009846C3009946B944CC4682466346DC68B3
:1059B000A44507D12AE1002A00DB33E1E468A445CD
:1059C00000D123E14246636893435A1B0F2AF2DD5C
:1059D00001208046611905436560A068E5680837C5
:1059E000C560A86040461043F960B9604860CF6068
:1059F00030008F60E25000F003FA2000083002E02F
:105A00000C230020336003B0F0BCBB46B246A9466D
:105A1000A046F0BD80213F2340209846890077E7CB
:105A2000DC680230A34200D046E73A003C69083205
:105A3000944200D087E701217B688210914099420F
:105A4000A5D90322BC68636893439A469D4203D854
:105A50005B1B0F2B00DD87E023005344644A019356
:105A6000644B90461B681268EB18013200D13BE191
:105A7000614A944663441B0B1B030093300000995A
:105A800000F074FB03008146013300D1F8E0019B74
:105A9000834200D9F2E0594B00989B468446594610
:105AA0001B6863440B6001991A00494500D151E11C
:105AB00043461B68013300D156E14B4601995B1AFE
:105AC0009B185A46136007234A4649461A400192DA
:105AD000194200D112E18B1A082189460099994494
